:040000008A157D28B8
:10000800FF00030E83018316B6000A08B7008A01B1
:1000180070088312AF007108AE007208AD00730853
:10002800AC007408AB007508AA007608A900770828
:10003800A8007808A7007908A6007A08A5007B0818
:10004800A4007C08A3007D08A2000B1E2F288B1C8F
:100058002F281A268B100B1C3F280616061E36283A
:1000680057260B10071087108616861E3D286A260D
:100078000B10071087100B1D5D2801308316A60290
:10008800031CA70300302706031D4C280030260652
:10009800031D5C289030DF000130E000FA30E100F9
:1000A800E2017D267A30A6000030A7008312810184
:1000B8000B1183122F08F0002E08F1002D08F20012
:1000C8002C08F3002B08F4002A08F5002908F6008C
:1000D8002808F7002708F8002608F9002508FA007C
:1000E8002408FB002308FC002208FD0083163708BB
:0C00F8008A00360E8300FF0E7F0E090008
:10010400083083120313FC002330FD00FD0B882804
:06011400FC0B8828080026
:04011A0000000800D9
:10011E00103083120313FD00FD0B9328000008001E
:10012E0083160313DE1B9E2883128811A0288312C8
:10013E00881583165E1BA62883120811A828831221
:10014E0008158316DE1AAE2883128810B028831283
:10015E00881483165E1AB62883120810B8288312E4
:10016E00081483162518BE2883120816C028831279
:10017E00081288168D2088128316DE19C92883125C
:10018E008811CB288312881583165E19D128831205
:10019E000811D328831208158316DE18D928831266
:1001AE008810DB288312881483165E18E1288312C8
:1001BE000810E3288312081483162518E9288312E1
:1001CE000816EB288312081288168D2088128316C3
:0C01DE00251CF3288220F4288F20080044
:0801EA00FA1FF21300300800B7
:0E01F200F201F101F001F801F3010030080004
:1002000083120313F801F9011030FC00710DF80D91
:10021000F90D7408F8027508031C750FF90203182C
:1002200018297408F80775080318750FF9070310E3
:0A023000F00DF10DFC0B062908008B
:10023A008316031325105D08DE0097208316251404
:02024A000800AA
:10024C007B15FB1F30290130F300F201F101F001A5
:08025C00FA0DF20CFF3008005E
:1002640083160313DB0105305B02031840295B0886
:100274005A07840020308000DB0A35295B085A07BE
:1002840084008001DB035B085A07DC000A30F400B9
:10029400F5015808F0005908F10000217808F00031
:1002A4007908F1003030F00783165C088400700888
:1002B40080000A30F400F5015808F0005908F100F4
:1002C400002170088316D8007108D9000030710627
:1002D400031D6E2900307006031D71297329DB0389
:0402E40045290800A0
:1002E8007B14FB1F7F29F201FA1FFF30F200F10097
:0A02F800F000FA0DF20CFF300800D0
:1003020083160313EB03EB036B08003C03188E29DF
:10031200EB0300000000000085290000000000003F
:06032200000000000800CD
:10032800A0017208031DA9297108F2007008F100E4
:10033800F001A0157208031DA9297108F200F10146
:10034800A011201672080319B7292008F302031D0B
:10035800031CBB290310F21BBF29F00DF10DF20D90
:10036800F30BAF29BB290130FC00F920C229023068
:0E037800FC002621C2290430FC00F5200800FC
:10038600FB14FB1FCD29FF30F300F200F100F00053
:08039600FA0DF20CFF30080023
:0E039E00073083120313FD00FD0BD329080066
:1003AC0083120313FB01FA01F901F801A101730D8A
:1003BC00F80D7408F8027508031C750FF90276081D
:1003CC00031C760FFA027708031C770FFB0200015F
:1003DC00031C0130A102F30D0730FC00730DF80D66
:1003EC00F90DFA0DFB0DA10D7408731C0F2AF80200
:1003FC007508031C750FF9027608031C760FFA02B8
:10040C007708031C770FFB020001031C0130A102CB
:10041C00202AF80775080318750FF90776080318D2
:10042C00760FFA0777080318770FFB0700010318FC
:10043C000130A107F30DFC0BF429720DF80DF90D29
:10044C00FA0DFB0DA10D7408731C3E2AF8027508F9
:10045C00031C750FF9027608031C760FFA02770855
:10046C00031C770FFB020001031C0130A1024F2A71
:10047C00F80775080318750FF90776080318760F37
:10048C00FA0777080318770FFB07000103180130F0
:10049C00A107F20D0730FC00720DF80DF90DFA0DE5
:1004AC00FB0DA10D7408721C6D2AF8027508031C53
:1004BC00750FF9027608031C760FFA027708031CF5
:1004CC00770FFB020001031C0130A1027E2AF80702
:1004DC0075080318750FF90776080318760FFA07D5
:1004EC0077080318770FFB07000103180130A107E9
:1004FC00F20DFC0B522A710DF80DF90DFA0DFB0DD6
:10050C00A10D7408721C9C2AF8027508031C750F47
:10051C00F9027608031C760FFA027708031C770F92
:10052C00FB020001031C0130A102AD2AF80775087B
:10053C000318750FF90776080318760FFA07770872
:10054C000318770FFB07000103180130A107F10D09
:10055C000730FC00710DF80DF90DFA0DFB0DA10D16
:10056C007408711CCB2AF8027508031C750FF9026C
:10057C007608031C760FFA027708031C770FFB0230
:10058C000001031C0130A102DC2AF80775080318CE
:10059C00750FF90776080318760FFA077708031812
:1005AC00770FFB07000103180130A107F10DFC0BBD
:1005BC00B02A700DF80DF90DFA0DFB0DA10D740894
:1005CC00711CFA2AF8027508031C750FF9027608DB
:1005DC00031C760FFA027708031C770FFB0200014D
:1005EC00031C0130A1020B2BF80775080318750FBB
:1005FC00F90776080318760FFA0777080318770FB0
:10060C00FB07000103180130A107F00D0730FC00B7
:10061C00700DF80DF90DFA0DFB0DA10D7408701C81
:10062C00292BF8027508031C750FF9027608031CB8
:10063C00760FFA027708031C770FFB020001031CEC
:10064C000130A1023A2BF80775080318750FF9074A
:10065C0076080318760FFA0777080318770FFB074D
:10066C00000103180130A107F00DFC0B0E2B7018C4
:10067C004D2B7408F80775080318750FF9077608E1
:10068C000318760FFA0777080318770FFB07080093
:10069C00831603135808831203178D0083168C13CB
:0A06AC000C1483120C08F000080083
:1006B600831603178C1C612B00005B2B0313580851
:1006C600831203178D008316031359088312031729
:1006D6008C0083168C130C150B08F0008B13553009
:1006E6008D00AA308D008C14F01B7B2B8B137C2B7A
:0606F6008B170C11080037
:1006FC00902B803083160313D800A32BC030D80066
:10070C00A32B9430D800A32BD430D800A32B80304B
:10071C00D800A32B831603135808013A03197F2B17
:10072C005808023A0319842B5808033A0319872BEB
:10073C005808043A03198A2B8D2B5903F0005808DA
:10074C00F0077008D8007008DE009720831625107B
:10075C00DB015B085A07840000080319BD2B5B08FA
:10076C005A0784000008DD001D21DB0AAF2B25147D
:02077C00080073
:10077E00A03083120313F0000F30F100F201F301E9
:02078E00080061
:10079000831203132230FC00F801F901FA01FB0176
:1007A000FC030319FE2B0310FB0CFA0CF90CF80CDC
:1007B000F30CF20CF10CF00C031CD02BFC0303190E
:1007C000F02B7408F80775080318750FF9077608F9
:1007D0000318760FFA0777080318770FFB07D42B57
:1007E0007408F80775080318750FF90776080318D9
:0E07F000760FFA0777080318770FFB0708004B
:0E07FE00831203136F088A006E088200080041
:10080C0083160313C201C3013D08C4003E08C50092
:10081C0080303E06F00080307002031D172C003033
:10082C003D020318252C0130C2000030C3003D08E6
:10083C00003CC4003E08031C013EC501C50244082F
:10084C00D8004508D9003F08DA0032210630C00034
:10085C000030C1004108003C031D362C4008003C10
:10086C000318512C40083F07F20001304002F00001
:10087C000030031C013E4102F10070083F07840068
:10088C000008F00072088400700880000130C0027B
:10089C00031CC103302C3F08840020308000420828
:1008AC00430403196F2CC001C10140083F078400A9
:1008BC000008203A031D662CC00A0319C10A5B2CE0
:1008CC000130C002031CC10340083F0784002D30D7
:0408DC008000080090
:1008E00083120313FA017308031D7A147708031D9A
:1008F000FA147A080319BC2C033A0319872C7A18C6
:10090000842CF61FBA2CB82CF21FB82CBA2C720803
:100910008039FA00F21376088039F6137A06031943
:10092000952C7A080319B82CBA2C7708730203198E
:100930009C2C031CB02CB42C760872020319A32C37
:10094000031CB02CB42C750871020319AA2C031CCB
:10095000B02CB42C740870020319BC2C0318B42CEE
:10096000FA080319BA2CB82CFA080319B82CBA2CB7
:1009700003140800031008000314031508000800FE
:1009800083160313D301D401D501D6013D08D3004A
:100990003E08D40080304006F000803054067002DB
:1009A000031DD42C53083F02031CE92C5508C33EF9
:1009B000D7005308D8004E2383160313570884002A
:1009C00070088000D50A0319D60AD30A0319D40A7D
:1009D000CA2C4108D8004208D900C330DA007E236F
:1009E0000330FC009730FD00FD0BF42CFC0BF42CC5
:0609F000000000000800F9
:1009F60083120313FB0173080319382D7208FA00DA
:100A0600F2178E30F302F31F3B2DF309F30A083079
:100A16007302031C1E2DF300F10D7208F100F201A2
:100A260008307302031C1E2DF300F10DF10173084B
:100A3600031D0310262D73080319262D0310F20C2F
:100A4600F10CF30B212D7B1B711C302D031C302D5B
:100A5600F10A0319F20AF21B472DFA1F4A2DF20971
:100A6600F109F10A0319F20A4A2DF201F1014A2DA0
:100A76007B14FB1F4D2DF201FA1F4D2DFF30F200A6
:100A8600F100FA0DF20C4D2D0130FC004F2D003017
:100A9600FC004F2DFF30FC00FC080319532D742178
:0A0AA6007108F0007208F10008006A
:100AB00083120313FB017308031D77080319AF2D7D
:100AC00072087606FA007708F3077E30031C6C2D57
:100AD000F3020318B22D6F2DF302031CB52D72081B
:100AE000F8007108FC007008FD00F817F6170310F5
:100AF000F201F101F0011830A0007D1C892D74086D
:100B0000F00775080318750FF10776080318760FBC
:100B1000F207F20CF10CF00CF80CFC0CFD0C0310BD
:100B2000A00B7D2DF21B992DF80DF00DF10DF20D9E
:100B3000F3037B1B701CAB2DF81FAB2DF00A0319C0
:100B4000F10A0319F20A031DAB2DF20CF10CF00CA3
:100B5000F30A0319B22DFA1FF2130030B72D01303A
:100B6000F920B72D0230C321B72D04302621000013
:020B700008007B
:100B7200831203137008F8007108F000F101F2010A
:100B8200F301FB01FC019630F300FA017008F10059
:0C0B92007808F000F801F201942108003E
:100B9E00831203139F01C0309F045D09F00070089B
:100BAE0083169F051F179F173D08F000F00D70105C
:100BBE00F00D7010F00D7010700883129F041F144A
:100BCE00CF211F151F1DED2D0000E92D1F101E0832
:100BDE00F100F00183161E08F0040030F104080045
:100BEE00FF238A110A128000840AEE0A0319EF0A03
:080BFE00F003031DF72D0800B0
:100C0600FF3083160313A800FF30A900FF30AA00A7
:100C1600FF3083129F01C0309F045D09F000700809
:0E0C260083169F051F179F1783121F140800C7
:100C340083160313B901BA0180303A06F0008030FC
:100C44007002031D272E033039020318542E831219
:100C540008178230FC00DD30FD00FD0B2F2EFC0B4D
:100C64002F2E0000000008138230FC00DD30FD0050
:100C7400FD0B3A2EFC0B3A2E000000000514063042
:100C8400FB001330FC00AD30FD00FD0B472EFC0BC8
:100C9400472EFB0B472E000000008316B90A0319E8
:0A0CA400BA0A1E2E83120510080084
:100CAE0083120313071487100B30FB002630FC0051
:100CBE005D30FD00FD0B612EFC0B612EFB0B612EDA
:060CCE0000000000080018
:100CD40083120313071087140B30FB002630FC002B
:100CE4005D30FD00FD0B742EFC0B742EFB0B742E7B
:060CF400000000000800F2
:100CFA00BF23E830F4000330F500F601F701C823FA
:100D0A0070088316E7007108E8007208E9007308A2
:100D1A00EA005F08F4006008F500F601F701D62141
:100D2A0070088316E7007108E8007208E900730882
:100D3A00EA007008F5007108F6007208F7007308F7
:100D4A00F800F80CF70CF60CF50CF813F80CF70C85
:100D5A00F60CF50CF8137508F0007608F100770820
:100D6A00F2007808F300F30CF20CF10CF00CF31318
:100D7A007008E3007108E400BF2383166108F400D9
:100D8A006208F500F601F701C82383166308F90023
:100D9A006408FA00FB01FC010330F8007908F4004A
:100DAA007A08F5007B08F6007C08F7007808031932
:100DBA00E52EF40DF50DF60DF70D7410FF3EDC2E41
:100DCA00D62170088316E7007108E8007208E90066
:100DDA007308EA000A30F4000030F5006308F000F6
:100DEA006408F100002170088316E3007108E4002A
:100DFA0000307102031D032F033070020318062FFF
:100E0A00532F3B0884006A08003C031D162F69080B
:100E1A00003C031D162F6808003C031D162F6708A7
:100E2A00003C0318512F3C088004640803192D2F35
:100E3A00E501E60100306602031D252F64086502FC
:100E4A0003182D2FEB018121E50A0319E60A1F2F4A
:100E5A006308EB0081213808800564080319452FCF
:100E6A00E501E60100306602031D3D2F64086502B4
:100E7A000318452FEB018121E50A0319E60A372FEA
:100E8A006308EB0081210130E702031CE802031C1E
:0E0E9A00E902031CEA02082F38088005080050
:100EA80083160313C401C501C601C7013D08C40068
:100EB8003E08C50080304006F000803045067002CC
:100EC800031D682F44083F02031C7A2F4408D800EA
:100ED8004608430784000008D9005B230313C60AA9
:100EE8000319C70AC40A0319C50A5E2F4108D800A6
:100EF8004208D9004308DA007E230330FC0097300B
:100F0800FD00FD0B852FFC0B852F0000000008005D
:100F1800831603133D08BB003E08F1000130F000C2
:100F2800710803199B2FF00D7010FF3E952F700864
:100F3800BC00F0097008B80080303D0784007008D4
:0A0F4800800584137008800508007E
:10100000831603138812081208108810081188111B
:1010100083128812081288110811881008108A118A
:1010200082208A158A1182208A158A1182208A15C7
:101030008814081488168A118D208A1588128A113E
:1010400082208A1588168A118D208A1588128A11A5
:1010500082208A1588168A118D208A1588128A1195
:1010600082208A15081088168A118D208A15881208
:101070008A1182208A1588168A118D208A15881275
:101080008810881588168A118D208A1588128A1171
:1010900082208A158811081488168A118D208A15D5
:1010A0008812081088168A118D208A1588128A11D4
:1010B00082208A1588168A118D208A1588120814B4
:1010C00088168A118D208A1588128A1182208A1525
:1010D000081088168A118D208A158812881508151F
:1010E0008814081488168A118D208A1588128A118E
:0A10F00082208A15831625140800DB
:1010FA00D0218316031306140813831208138316C8
:10110A000510831205108316061686160710871017
:10111A00831207108710831605160511831205110D
:10112A0083168511831285118316881300208A116C
:10113A0003268A1508308316BD000730BE008A11BF
:10114A008C278A150C30DE008A1197208A158E307A
:10115A0083169F000B168B1701178B170B168B150F
:10116A0001178B178B168112011481140115811135
:10117A00831281017A308316A6000030A70001305D
:10118A00D8000130D900A030DA008A117E238A15EE
:10119A000230D8000130D9005E30DA008A117E238D
:1011AA008A150630FB001330FC00AD30FD00FD0B44
:1011BA00DC28FC0BDC28FB0BDC28000000000130DB
:1011CA00DE008A1197208A1501308316BD008A1124
:1011DA00CF258A158A11B9258A1570088316B20097
:1011EA007108B3007208B4007308B5003530F40012
:1011FA005E30F5007A30F6007D30F7008A11582506
:10120A008A1570088316AE007108AF007208B00024
:10121A007308B1008A11FB248A1570088316BD0071
:10122A007108BE00AB30BF008A1106248A1501304E
:10123A00DE008A1197208A1501308316D800013002
:10124A00D9003F30DA008A117E238A150230D8008D
:10125A000330D900AB30DA008A117E238A150630B2
:10126A00FB001330FC00AD30FD00FD0B3A29FC0BEE
:10127A003A29FB0B3A29000000000130DE008A11EE
:10128A0097208A158316BD01BE010F30BF000030BA
:10129A00C0000130C1000130C2003030C3008A11E1
:1012AA0054278A151030BD000030BE001F30BF0021
:1012BA000030C0000230C1000130C2004C30C3000F
:1012CA008A1154278A15BD01BE010F30BF000030B4
:1012DA00C0000130C1000130C2008A11C0248A1541
:1012EA001030BD000030BE001F30BF000030C0000B
:1012FA000230C1000130C2008A11C0248A150330AD
:10130A00FB008A30FC005530FD00FD0B8A29FC0BDE
:10131A008A29FB0B8A29000000002E08F4002F08F6
:10132A00F5003008F6003108F7000030F000003010
:10133A00F1001430F2008430F3008A1170248A1507
:10134A00013003180030F00070080319AD290515A3
:10135A000030F4000030F5001430F6008430F70055
:10136A0083162E08F0002F08F1003008F200310829
:10137A00F3008A1170248A15013003180030F00036
:0C138A0070080319C9298515E928CA2933
:1013A000303084003E3083120313F000A930EE0089
:1013B0000730EF008A11F7258A15A0308400053028
:1013C00083120313F000E730EE000730EF008A11BC
:0613D000F7258A15080054
:100F52004534623469347834613420343134303485
:0E0F62006D346734203432342F344A34003476
:100F7000543465346D34703465347234613474348F
:0A0F80007534723465343A340034DD
:100F8A0041347234693463346534703474342034CF
:100F9A00313430346D346734203433342F344A34A6
:020FAA00003411
:020FAC000F3400
:100FAE004834613476346534203441342034473447
:100FBE006F346F3464342034443461347934003403
:0A0FCE0041344D3441344C340034FA
:02400E004A2F37
:00000001FF
